:020000020000FC
:020000000EC030
:0200060065C0D3
:0600120076C077C07BC040
:10001E0002E00EBF0FE50DBFB89AB99ABA98BC9A16
:10002E0005E5E0E6F0E000830FE309BD0FE108BD52
:10003E0002E40ABD07E003BF08E509BF0FEF0EBDDE
:10004E0001E000BF789436FDFECFE0E6F0E01081CF
:10005E003064F9CFF8CF37FF26C030FD04C01FE360
:10006E001ABD3060002731FF07C032FF0DC033FFCD
:10007E0013C034FF14C016C003950430A0F011E075
:10008E001ABD002731600FC00395023060F011E0F9
:10009E001ABD0027326007C011E01ABD33601FE39E
:1000AE001ABD34603660089536FF0BC08894111F58
:1000BE00339533FF02C03F7B307F18F023B72068A3
:1000CE0023BF089500B704FD10C000912900989435
:1000DE00002339F00FEF0EBD01E100BF10C002E1A9
:1000EE000FBD01E900BF04E00CBD18951895DCDFCB
:1000FE001895189518950FEF0EBD01E000BF1895D5
:06010E00D3DF18951895DF
:00000001FF
