:020000020000FC
:020000000EC030
:0200160023C005
:10001E0002E00EBF0FE50DBFB99AC19813E021E0C3
:10002E00BB2700E002BFADE309E008BD00E00ABD5A
:10003E0008E009BF789405E003BF0FB70F9308B32C
:10004E00009501FB009501F908BB0F910FBFFFCF83
:10005E000AB50C7F0ABD08B701FF03C0B39502E0D5
:10006E0008BF0A2F0A95B01719F0BA1728F422C044
:10007E000AB503600ABD1EC01A95112371F0222322
:10008E00C1F02A950FB70F9308B3009501FB0095A9
:10009E0001F908BB0F910FBF0CC00FB70F9308B338
:1000AE00009501FB009501F908BB0F910FBF13E0FE
:0600BE0021E0BB271895AC
:00000001FF
