:020000020000FC
:0200000067C0D7
:0200380064C0A2
:1000680007E005BB002704BD05BD06BD07BD08BDEB
:1000780000936E000F9104BD0F9105BD0F9106BD51
:100088000F9107BD0F9108BD0F9100936E00089561
:100098000F931F9305B510910001187F012B05BD23
:1000A8001F910F9108950F9305B5077005BD0F9126
:1000B80008950F931F9305B5109100011F73012B2D
:1000C80005BD1F910F91089508E00EBF0FEF0DBFFA
:1000D800259A02E00F9300E00F930CE90F9300E0DC
:1000E8000F9300E00F9302E40F9305E000930001E3
:1000F80024E6B6DF7894CCDFFFCF222311F02A95CF
:100108000BC024E63FB73F9335B1309535FB3095AA
:0A01180035F935B93F913FBF189546
:00000001FF
