:020000020000FC
:1000000008E00EBF0FEF0DBF07E00F930F9398941A
:100010002227002331F021E0220F0A950023E1F787
:1000200001C021E00F910091C600022B0093C60091
:100030000F9100000090C6000F92000006E00F93A1
:100040000F9398942227002331F021E0220F0A9584
:100050000023E1F701C021E00F9106B5022B06BD98
:100060000F91000006B40F92000005E00F930F936C
:1000700098942227002331F021E0220F0A950023D3
:10008000E1F701C021E00F9104B1022B04B90F91F7
:10009000000004B00F92000000000000000000000B
:1000A00000000000000001E00F930F9398942227B6
:1000B000002331F021E0220F0A950023E1F701C06F
:1000C00021E00F910091C600022B0093C6000F9112
:1000D00000000090C6000F92000001E00F930F9304
:1000E00098942227002331F021E0220F0A95002363
:1000F000E1F701C021E00F9106B5022B06BD0F917B
:10010000000006B40F92000001E00F930F93989443
:100110002227002331F021E0220F0A950023E1F786
:1001200001C021E00F9104B1022B04B90F9100002E
:1001300004B00F920000000000000000000000006A
:100140000000000001E00F930F93989422270023F2
:1001500031F021E0220F0A950023E1F701C021E0F0
:100160000F9120950091C60002230093C6000F91C5
:1001700000000090C6000F92000001E00F930F9363
:1001800098942227002331F021E0220F0A950023C2
:10019000E1F701C021E00F91209506B5022306BDCD
:1001A0000F91000006B40F92000001E00F930F932F
:1001B00098942227002331F021E0220F0A95002392
:1001C000E1F701C021E00F91209504B1022304B9A9
:0801D0000F91000004B00F9232
:00000001FF
