:020000020000FC
:1000000008E00EBF0FEF0DBF07E00F939894112784
:10001000002331F011E0110F0A950023E1F701C030
:1000200011E00F911F9306E00F939894112700237E
:1000300031F011E0110F0A950023E1F701C011E042
:100040000F911F9305E00F9398941127002331F02F
:1000500011E0110F0A950023E1F701C011E00F91A3
:100060001F9304E00F9398941127002331F011E0BF
:10007000110F0A950023E1F701C011E00F911F93C2
:1000800003E00F9398941127002331F011E0110F32
:100090000A950023E1F701C011E00F911F9302E0E0
:1000A0000F9398941127002331F011E0110F0A9556
:1000B0000023E1F701C011E00F911F9301E00F93BE
:1000C00098941127002331F011E0110F0A950023B5
:1000D000E1F701C011E00F911F9300E00F93989496
:1000E0001127002331F011E0110F0A950023E1F7E9
:1000F00001C011E00F911F9307E00F93989411270F
:10010000002331F011E0110F0A950023E1F701C03F
:1001100011E00F911F930A9581F70F93989411277F
:10012000002331F011E0110F0A950023E1F701C01F
:0801300011E00F911F9368CF4D
:00000001FF
