:1000000017C031C030C02FC02DC22DC02CC02BC096
:100010002AC029C028C027C026C025C024C000018E
:10002000FE0101FD0201FB0301F70401EF0501DF01
:1000300011241FBECFE5D2E0DEBFCDBF10E0A0E6A9
:10004000B0E0E8E0F7E002C005900D92AE36B107EF
:10005000D9F720E0AEE6B0E001C01D92AE39B2079C
:10006000E1F7E0D14FC3CCCF60E080E8AAC00F93A6
:100070001F9380917F00811111C08FE790E0D6D14E
:10008000892B61F042D26093730070937400809367
:100090007500909376008FE790E0D1D18091770042
:1000A000811111C087E790E0C1D1892B61F021D285
:1000B00060936F0070937000809371009093720052
:1000C00087E790E0BCD121D20091730010917400B9
:1000D0002091750030917600601B710B820B930BA1
:1000E0006C3371058105910550F00FD26093730058
:1000F000709374008093750090937600CDD0F9D101
:1001000000916F0010917000209171003091720089
:10011000601B710B820B930B6A3071058105910591
:10012000D8F0E7D160936F007093700080937100F6
:100130009093720060916A0080916E00680F6093E6
:100140006E0081E092D080916E008F3F19F0811196
:1001500003C081E080936A001F910F910895AF92D0
:10016000BF92CF92DF92EF92FF920F931F93682F6F
:1001700070E080E090E020916C001F921F921F922F
:100180002F93A12CB12C6501E12CF12C8701EA946D
:1001900020E030E0A90104D120916C0030E0CB01D7
:1001A0000F900F900F900F902617370708F4C90192
:1001B0001F910F91FF90EF90DF90CF90BF90AF9085
:1001C0000895CF92DF92FF920F931F93CF93DF9307
:1001D0001F92CDB7DEB7FFB6F894B89A9091880019
:1001E000916090938800B99A909188009260909362
:1001F0008800BA9A90918800946090938800BB9A86
:1002000090918800986090938800BC9A90918800A3
:10021000906190938800BD9A90918800906290932D
:10022000880080936C00909387000FE810E0C12C49
:10023000D12C862F698393DFF80181938F01F6011A
:10024000E757FF4F8083FFEFCF1ADF0A698186E00F
:10025000C816D10471F7FFBE0F90DF91CF911F91A7
:100260000F91FF90DF90CF900895CF93DF93EEE151
:10027000F0E0C0E0D0E09491981731F021963396E9
:10028000C630D105C1F705C0862F69DFC757DF4FDC
:100290008883DF91CF910895809187008095909118
:1002A0008800892780936D009091870088B3892BFF
:1002B00088BB90916D0088B3892388BB80916B00C7
:1002C0008F5F80936B0090916C0089131EC0109219
:1002D0006B008091890080938F0080918A008093C9
:1002E000900080918B008093910080918C0080938E
:1002F000920080918D008093930080918E00809376
:100300009400809188008093870080916B00909189
:100310008F00981308C0E0E2F0E0E491909187002C
:10032000E923E093870090919000981308C0E3E2DE
:10033000F0E0E49190918700E923E09387009091A9
:100340009100981308C0E6E2F0E0E49190918700F4
:10035000E923E093870090919200981308C0E9E2A6
:10036000F0E0E49190918700E923E0938700909179
:100370009300981308C0ECE2F0E0E49190918700BC
:10038000E923E093870090919400981308C0EFE26E
:10039000F0E0E49180918700E823E09387000895DE
:1003A0004F925F926F927F92AF92BF92CF92DF9205
:1003B000EF92FF920F931F93CF93DF93CDB7DEB7EA
:1003C00029013A0129893A894B895C89641975099F
:1003D000860997092A193B094C095D09EFD0A32F1B
:1003E000F42FE52FE418F50806091709622F7A2F74
:1003F0008F2F9E2FA8019701C5D02A0D3B1D4C1DA4
:100400005D1DCA01B901DF91CF911F910F91FF903E
:10041000EF90DF90CF90BF90AF907F906F905F9004
:100420004F90089596D020DE22DEFECFFC0181E0C1
:1004300090E02081222311F080E090E0089521E0F7
:10044000FC012083089583B7887F83BF8AB58C7FA2
:1004500081608ABD83B7877F83BF83B7887F8360CE
:1004600083BF089578941F920F920FB60F921124B4
:100470002F933F938F939F93AF93BF938091960059
:1004800090919700A0919800B091990030919500BB
:100490002CE7230F2D3728F02FEF230F0196A11DF6
:1004A000B11D209395008093960090939700A093A0
:1004B0009800B093990080919A0090919B00A09130
:1004C0009C00B0919D000196A11DB11D80939A00E2
:1004D00090939B00A0939C00B0939D00BF91AF911F
:1004E0009F918F913F912F910F900FBE0F901F9072
:1004F00018952FB7F89460919600709197008091AD
:100500009800909199002FBF08953FB7F89480917B
:100510009A0090919B00A0919C00B0919D002FB5F6
:1005200008B602FE05C02F3F19F00196A11DB11DAE
:100530003FBF6627782F892F9A2F620F711D811D6B
:10054000911D42E0660F771F881F991F4A95D1F7CA
:100550000895789480B7806880BF80B7806480BF3A
:100560008CB580648CBD8FEF8DBD80B7807F876038
:1005700080BF89B7846089BF66DF86B1876086B92E
:10058000379A0895052E97FB16F400940FD057FD67
:1005900005D068D007FC02D046F408C050954095BD
:1005A000309521953F4F4F4F5F4F0895909580951F
:1005B000709561957F4F8F4F9F4F089568940013FA
:1005C000E894A0E0B0E0E6EEF2E01DC0EFEFE7F95E
:1005D00059016A015E23550FEE08FE2C87019B012D
:1005E000AC019E23990F660B762FCB015DD0CDB762
:1005F000DEB7EAE024C02F923F924F925F926F9253
:100600007F928F929F92AF92BF92CF92DF92EF92A2
:10061000FF920F931F93CF93DF93CDB7DEB7CA1B23
:10062000DB0B0FB6F894DEBF0FBECDBF09942A884E
:10063000398848885F846E847D848C849B84AA84F6
:10064000B984C884DF80EE80FD800C811B81AA8183
:10065000B981CE0FD11D0FB6F894DEBF0FBECDBF4E
:10066000ED010895A1E21A2EAA1BBB1BFD010DC0CE
:10067000AA1FBB1FEE1FFF1FA217B307E407F50752
:1006800020F0A21BB30BE40BF50B661F771F881F2E
:10069000991F1A9469F760957095809590959B01C4
:1006A000AC01BD01CF010895DF93CF939F92A0E4E9
:1006B0009A2E0024D001E001F00116950795F794D9
:1006C000E794D794C794B794A79448F41068A20FFE
:1006D000B31FC41FD51FE61FF71F081E191E220FC8
:1006E000331F441F551F661F771F881F991F9A9439
:1006F00021F79D01AE01BF01C00111249F90CF9150
:08070000DF910895F894FFCF8A
:0E07080000009E0080000100000001FFFFFFC6
:00000001FF
