:1000000016C025C024C023C052C021C020C01FC0BC
:100010001EC01DC01CC01BC01AC019C018C00102E0
:1000200004081020010101010101003800371124EA
:100030001FBECFE5D2E0DEBFCDBF20E0A0E6B0E03E
:1000400001C01D92A936B207E1F71ED03EC1D8CF3C
:1000500061E080E0D4D061E081E0D1C061E080E087
:1000600005D161E081E002D168EE73E080E090E0CC
:1000700089D060E080E0FAD060E081E0F7D068EEFF
:1000800073E080E090E07EC0A1D0E2DFE7DFFECF4A
:1000900083B7887F83BF8AB58C7F81608ABD83B731
:1000A000877F83BF83B7887F836083BF08957894F9
:1000B0001F920F920FB60F9211242F933F938F939D
:1000C0009F93AF93BF938091610090916200A09144
:1000D0006300B0916400309160002CE7230F2D374E
:1000E00028F02FEF230F0196A11DB11D2093600072
:1000F0008093610090936200A0936300B0936400CA
:100100008091650090916600A0916700B0916800B1
:100110000196A11DB11D8093650090936600A09388
:100120006700B0936800BF91AF919F918F913F910D
:100130002F910F900FBE0F901F9018953FB7F89416
:100140008091650090916600A0916700B091680071
:100150002FB508B602FE05C02F3F19F00196A11D6C
:10016000B11D3FBF6627782F892F9A2F620F711D0F
:10017000811D911D42E0660F771F881F991F4A95C8
:10018000D1F70895CF92DF92EF92FF92CF93DF9352
:100190006B017C01D3DFEB01C114D104E104F10454
:1001A00071F0CCDF6C1B7D0B683E7340A8F381E0DF
:1001B000C81AD108E108F108C851DC4FEDCFDF9132
:1001C000CF91FF90EF90DF90CF900895789480B713
:1001D000806880BF80B7806480BF8CB580648CBD30
:1001E0008FEF8DBD80B7807F876080BF89B78460C7
:1001F00089BF4EDF86B1876086B9379A0895CF935D
:10020000DF9390E0FC01E25EFF4F2491FC01EC5D86
:10021000FF4F8491882339F190E0FC01E45DFF4FAA
:10022000A491B0E0FC01E65DFF4F8491611106C02E
:100230009FB7F8948C912095822313C0623069F4A3
:10024000C82FD0E09FB7F8948C91322F309583233C
:100250008C938881822B888305C09FB7F8948C91FA
:10026000822B8C939FBFDF91CF910895A82FB0E090
:10027000FD01E25EFF4F9491FD01EC5DFF4FE491C3
:10028000EE2311F1811103C08AB58F7304C0813050
:1002900021F48AB58F7C8ABD05C0843019F48CB5F1
:1002A0008F7C8CBDF0E0E65DFF4FA491B0E02FB7EE
:1002B000611105C0F8948C919095892303C0F8943E
:0E02C0008C91892B8C932FBF0895F894FFCF5B
:00000001FF
