:020000020000FC
:020000007EC0C0
:100068000883002709830A830B830895A981B8812F
:10007800AB1708F00895BF93AF93AFB7AF93A981BB
:10008800A395A983AA81B881BA95AB1711F0A39556
:1000980001C0AA27AA83AA2309F4A881AA95BC812A
:1000A800CA0FAA27DA1FBD83AF91AFBFAF91BF9127
:1000B80008950981002309F40895BF93AF93AFB75A
:1000C800AF93A981AA95A983AB81CA0FBB27DB1F70
:1000D800BD81CA1BAA27DA0BBC83AB81B881BA954C
:1000E800AB1711F0A39501C0AA27AB83AF91AFBF9F
:1000F800AF91BF91089508E00EBF0FEF0DBFBF93FA
:10010800AF93DF93CF930FEFC0E0D1E0A9DFCF919A
:10011800DF91AF91BF9100E0C0E0D1E0A981B88143
:10012800AB1708F031F0C0E0D1E003950C83A3DFF2
:10013800F3CFBF93AF93DF93CF930FEFC4E0D2E039
:100148008FDFCF91DF91AF91BF91C0E0D1E00981FE
:10015800002309F449F0C0E0D1E0AFDF0C81C4E02E
:0A016800D2E00C8388DFF1CFFFCF57
:00000001FF
