:020000020000FC
:10000000E0E0F2E00181E0E0F2E01281011BE0E0DB
:10001000F2E003830895F4DFE0E0F2E003810F3FB4
:1000200034F4E0E0F2E00081026000830895E0E053
:10003000F2E000810D7F00830895E0E0F2E00281AC
:10004000E0E0F2E01181011734F059F0E0E0F2E075
:1000500003810F3F34F4E0E0F2E000810E7F008383
:100060000895E0E0F2E000810160008308950E94BD
:100070001D000E940B0008950091000201FF0EC0B8
:1000800000C0E0E0F1E00182E1E0F0E001810395F1
:1000900001830E941D000E940B0008950000089536
:1000A0000091000200FF0EC000C0E0E0F1E002801D
:1000B000E2E0F0E00281039502830E941D000E94AD
:0800C0000B00089500000895F3
:1002000008E00EBF0FEF0DBF5FEF5A95552319F0B1
:08021000052E32DFF9CFFFCF0C
:00000001FF
