:020000020000FC
:1000000005E011E000930101109302010093030148
:10001000109304010027009300010895109100013E
:100020001F3F08F00895A0910101B09102010D93C6
:1000300004E012E0A017B10751F0A0930101B093C2
:100040000201009100010395009300010895A5E0CD
:10005000B1E0F3CF00910001013008F40895A091C0
:100060000301B09104012D9104E012E00A171B076F
:1000700051F0A0930301B0930401009100010A958F
:0C008000009300010895A5E0B1E0F3CF6B
:00000001FF
