:020000020000FC
:0200000073C1CA
:10006800CF93DF930F930FB70F938894EF01E65F59
:10007800FF4F00E000839894EC17FD0711F00293FE
:10008800FBCFA083B1830285006802870F910FBF61
:100098000F91CF91DF910895CF93DF930F930FB70F
:1000A8000F938894EF01E65FFF4FEA0FFB1F00E014
:1000B80000839894EC17FD0711F00293FBCFA083FF
:1000C800B1830285006802870F910FBF0F91CF910E
:1000D800DF9108950285E89406FD689408950285E5
:1000E800E89407FD689408958087089580850895A9
:1000F800EF93FF93AF93BF930F930FB70F93EA81DB
:10010800FB81EF5FFF4FEA83FB83A881B981989455
:10011800EA17FB0719F40A8500640A870A8507FDB0
:100128000A850F770A87EC81FD81CE0FDF1F8B8749
:10013800CE1BDF0B11979894EA17FB0719F4FF27DA
:10014800EE2702C0EF5FFF4FEC83FD830F910FBFD7
:100158000F91AF91BF91EF91FF910895EF93FF93A6
:10016800AF93BF930F930FB70F93EA81FB8131973A
:10017800EA83FB839894EE2331F49894FF2319F4CF
:100188000A8500680A870A8506FD0A850F7B0A87A3
:10019800EE81FF81CE0FDF1F8B85CE1BDF0BA88181
:1001A800B98111979894EA17FB0719F4FF27EE27EE
:1001B80002C0EF5FFF4FEE83FF830F910FBF0F91D8
:1001C800AF91BF91EF91FF910895AF93BF930F93B4
:1001D8000FB70F938894DE01C65FDF4F00E00883F6
:1001E8009894CA17DB0711F00A93FBCF059108838F
:1001F8000A83059109830B83FF83EE830F910FBF59
:100208000F91AF91BF910895AF93BF93CF93DF93B1
:100218000F930FB70F93A281B381AF5FBF4FA28334
:10022800B383C081D1819894AC17BD0719F40285B6
:1002380000640287028507FD02850F770287A48183
:10024800B581EA0FFB1FEA1BFB0B21979894AC17AB
:10025800BD0719F4BB27AA2702C0AF5FBF4FA4830D
:10026800B5830F910FBF0F91CF91DF91AF91BF91E0
:100278000895EF93FF93AF93BF930F930FB70F9327
:10028800EA81FB813197EA83FB839894EE2331F46A
:100298009894FF2319F40A8500680A870A8506FDE1
:1002A8000A850F7B0A87EE81FF818491A881B98135
:1002B800AE5FBF4FAC0FBD1F9894EA17FB0721F440
:1002C800FE01EE5FFF4F02C0EF5FFF4FEE83FF833B
:1002D8000F910FBF0F91AF91BF91EF91FF910895CB
:1002E80007E00EBF0EEF0DBF0A0000010203040570
:1002F80006070809C0E0D1E0E0EFF2E066DF0A8512
:0E03080007FD04C0B6DF8F93FACFF9CFFFCF09
:00000001FF
