:020000020000FC
:02000000E5C059
:100068000F930FB70F938894E65FFF4F00E000836C
:1000780098940F93E03001E0F0070F9111F002938C
:10008800F8CF208331830285006802870F910FBF64
:100098000F9108950F930FB70F938894E65FFF4F62
:1000A800E20FF31F00E0008398940F93E03001E023
:1000B800F0070F9111F00293F8CF20833183028566
:1000C800006802870F910FBF0F9108950285E89489
:1000D80006FD689408950285E89407FD68940895DC
:1000E8004087089540850895AF93BF93CF93DF93DA
:1000F8000F930FB70F93A281B381AF5FBF4FA28356
:10010800B383C081D1819894AC17BD0719F40285D7
:1001180000640287028507FD02850F770287A481A4
:10012800B581EA0FFB1F4387EA1BFB0B21979894C5
:10013800AC17BD0719F4BB27AA2702C0AF5FBF4F92
:10014800A483B5830F910FBF0F91CF91DF91AF912A
:10015800BF910895AF93BF93CF93DF930F930FB7DA
:100168000F93A281B3811197A283B3839894AA2392
:1001780031F49894BB2319F402850068028702853C
:1001880006FD02850F7B0287A681B781EA0FFB1F58
:1001980003850087EA1BFB0BC081D18121979894C6
:1001A800AC17BD0719F4BB27AA2702C0AF5FBF4F22
:1001B800A483B5830F910FBF0F91CF91DF91AF91BA
:1001C800BF91089524EF36E0E0E0F1E049DF4FEF1A
:0E01D80098947CDF1EF088DFFCCFF9CFFFCFBC
:00000001FF
