:020000020000FC
:10000000D90100E0989419F001931197FCCF208357
:10001000318302850068028708950285E89406FD11
:10002000689408950285E89407FD68940895008710
:10003000089500850895A281B381AF5FBF4FA28369
:10004000B383C081D1819894AC17BD0719F40285A0
:1000500000640287A481B5810085EA0FFB1F038736
:10006000EA1BFB0B21979894AC17BD0719F4BB272B
:10007000AA2702C0AF5FBF4FA483B5830895A281B2
:10008000B3811197A283B3839894AA2331F49894EF
:10009000BB2319F4028500680287A681B781EA0FA5
:1000A000FB1F03850087EA1BFB0BC081D1812197D1
:1000B0009894AC17BD0719F4BB27AA2702C0AF5FFD
:0800C000BF4FA483B58308952E
:00000001FF
