:020000020000FC
:0200000033C00B
:020048009BC05B
:02004C00B4C03E
:02003800D9C02D
:1000680008E00EBF0FEF0DBF06E00093C20008EBDB
:100078000093C10002E00093C00000E10093C400B7
:100088000CE907BD02E000936E0002E004BD05E044
:1000980005BD7894259AFFCF00810F3F08F0089599
:1000A8000395008301818894E00F08F4F395138386
:1000B80008F4FA95E01B0F3F11F4002701C00395DF
:1000C800018308950081013008F408950A9500839A
:1000D80002818894E00F08F4F395138108F4FA95E7
:1000E800E01B0F3F11F4002701C003950283089518
:1000F80012818894100F08F4F3958894E10F08F49E
:10010800F395138108951197F1F70895BFE1A0E4DD
:10011800FADFBFE1A0E4F7DF0A95C1F708951F935E
:100128001FEFB2E4A0E4EFDF1A95D9F7B2E4A0E438
:10013800EADF98940A95A1F71F910895E0E0F1E0AD
:100148000081002349F0C2DF00810E3F29F40091AD
:10015800C10007600093C1000895E2E0F2E0008169
:100168000F3F49F09DDF0081013029F40091C10063
:1001780005600093C10008950F930FB70F93EF9395
:10018800FF93E0E0F1E000810F3F31F01F93109101
:10019800C60086DF1F9105C00091C100087F00934B
:1001A800C100EF91FF910F910FBF0F9118950F9319
:1001B8000FB70F93EF93FF93E2E0F2E00081002383
:1001C80031F01F9383DF1093C6001F91EACF00918F
:1001D800C1000A7F0093C100EF91FF910F910FBFFB
:1001E8000F911895222311F02A9541C023E60FB7E5
:1001F8000F9305B1009505FB009505F905B90F9119
:100208000FBF006FDE4DBC2B9A0978E756FF0B7ABB
:10021800E958C736A51483F261FF006FDEBC2B9A3C
:10022800097856341281F05FCEAC1BFF50E060E0D5
:1002380070E04FE6F2E0E2E2762F652F5591989450
:100248005F3FA9F0DF016195650F7195760F10EF9B
:1002580084DF152F82DF11EF80DF162F7EDF12EF8C
:100268007CDF172F7ADF05D019D0FD01E5CF16D036
:100278001895772371F4641731F41EF068942BD025
:100288000CC0E8940AC0862F8695841731F42CD0C8
:1002980004C0741711F4E89427D008951F93EF93BE
:1002A800FF931DE05ADF1AE058DFEF91FF911F918D
:1002B80008951F93EF93FF931DE04FDFEF91FF9198
:1002C8001F9108951F93EF93FF931AE046DFEF9174
:1002D800FF911F9108951F93EF93FF9310E33DDF64
:1002E800EF91FF911F9108951F93EF93FF9311E3EF
:0A02F80034DFEF91FF911F9108958C
:00000001FF
