:020000020000FC
:0200000026C018
:10004C005CC008E00EBF0FEF0DBF06E00093C200CE
:10005C0008EB0093C10002E00093C00000E10093A4
:10006C00C4004DC0453051F0443059F0433061F07C
:10007C00423069F0413071F0403079F0932C439567
:10008C000EC0832C43950BC0732C439508C0632C76
:10009C00439505C0532C439502C0432C43950895BA
:1000AC00463051F0453059F0443061F0433069F03E
:1000BC00423071F0413079F0392C4A950FC0382C10
:1000CC004A950CC0372C4A9509C0362C4A9506C067
:1000DC00352C4A9503C0342C4A9500C00895403005
:1000EC0019F0DEDF3092C6000895403029F0D8DFD9
:1000FC003092C6004423D9F70895F1DF18951BD030
:10010C0000E30093C600F1E4E4E0463059F03F2EE2
:10011C00A9DFF395EA95C9F7EDE03F2EA3DFEAE0FE
:10012C003F2EA0DF01E30093C600D9DF02E300936A
:10013C00C600E5CFFFCF2FEF3FEF0000000000001F
:10014C0000000000000000000000000000000000A3
:10015C000000000000000000000000000000000093
:10016C000000000000000000000000000000000083
:10017C000000000000000000000000000000000073
:0E018C0000000000BA94C1F6AA94A9F60895E6
:00000001FF
