:020000020000FC
:100000000883002709830A830B83089508810983E5
:100010000895A981B881AB1708F00895BF93AF93F5
:10002000AFB7AF93A981A395A983AA81B881BA95E7
:10003000AB1711F0A39501C0AA27AA83AA2309F43C
:10004000A881AA95BC81CA0FAA27DA1FBD83AF91E8
:10005000AFBFAF91BF9108950981002309F40895BE
:10006000BF93AF93AFB7AF93A981AA95A983AB8193
:10007000CA0FBB27DB1FBD81CA1BAA27DA0BBC83B3
:10008000AB81B881BA95AB1711F0A39501C0AA272F
:10009000AB83AF91AFBFAF91BF9108950F931F9303
:1000A0000981002351F0DCDF09811881011729F44F
:1000B0000091C10000680093C1001F910F91089545
:1000C0000F931F9309811881011749F0A7DF098158
:1000D000002329F40091C10000620093C1001F9128
:1000E0000F9108951F930F930FB70F93DF93CF9343
:1000F000C0E0D1E009811881011729F00091C60004
:100100000C838CDF05C00091C100087F0093C10003
:10011000CF91DF910F910FBF0F911F9118950F9302
:100120000FB70F93DF93CF93C5E4D1E0098100238C
:1001300029F096DF0C810093C600EACF0091C10040
:100140000F7D0093C100CF91DF910F910FBF0F91F1
:02015000189500
:00000001FF
